{
    "contractName": "hello",
    "abi": [
        {
            "inputs": [],
            "name": "ola",
            "outputs": [
                {
                    "internalType": "string",
                    "name": "",
                    "type": "string"
                }
            ],
            "stateMutability": "view",
            "type": "function"
        }
    ],
    "bytecode": "60c0604052600560809081526468656c6c6f60d81b60a05260009061002490826100d6565b5034801561003157600080fd5b50610195565b634e487b7160e01b600052604160045260246000fd5b600181811c9082168061006157607f821691505b60208210810361008157634e487b7160e01b600052602260045260246000fd5b50919050565b601f8211156100d157600081815260208120601f850160051c810160208610156100ae5750805b601f850160051c820191505b818110156100cd578281556001016100ba565b5050505b505050565b81516001600160401b038111156100ef576100ef610037565b610103816100fd845461004d565b84610087565b602080601f83116001811461013857600084156101205750858301515b600019600386901b1c1916600185901b1785556100cd565b600085815260208120601f198616915b8281101561016757888601518255948401946001909101908401610148565b50858210156101855787850151600019600388901b60f8161c191681555b5050505050600190811b01905550565b61019a806101a46000396000f3fe608060405234801561001057600080fd5b506004361061002b5760003560e01c8063f584b23a14610030575b600080fd5b61003861004e565b60405161004591906100dc565b60405180910390f35b6000805461005b9061012a565b80601f01602080910402602001604051908101604052809291908181526020018280546100879061012a565b80156100d45780601f106100a9576101008083540402835291602001916100d4565b820191906000526020600020905b8154815290600101906020018083116100b757829003601f168201915b505050505081565b600060208083528351808285015260005b81811015610109578581018301518582016040015282016100ed565b506000604082860101526040601f19601f8301168501019250505092915050565b600181811c9082168061013e57607f821691505b60208210810361015e57634e487b7160e01b600052602260045260246000fd5b5091905056fea26469706673582212209be7781403f5a3f4d10d77a68dd8f60d02e2fa05f82dc7262b2199bf07fa5e6664736f6c63430008130033",
    "sourcePath": "/home/casssia/Área de Trabalho/solidity/teste1.sol",
    "compiler": {
        "name": "solc",
        "version": "0.8.19+commit.7dd6d404"
    },
    "functionHashes": {
        "ola()": "f584b23a"
    },
    "gasEstimates": {
        "creation": {
            "codeDepositCost": "82000",
            "executionCost": "infinite",
            "totalCost": "infinite"
        },
        "external": {
            "ola()": "infinite"
        }
    }
}